{
  "_format": "hh-sol-artifact-1",
  "contractName": "JobContract",
  "sourceName": "contracts/jobContract.sol",
  "abi": [
    {
      "inputs": [
        {
          "internalType": "address",
          "name": "_tokenAddress",
          "type": "address"
        }
      ],
      "stateMutability": "nonpayable",
      "type": "constructor"
    },
    {
      "anonymous": false,
      "inputs": [
        {
          "indexed": true,
          "internalType": "uint256",
          "name": "_jobID",
          "type": "uint256"
        },
        {
          "indexed": true,
          "internalType": "address",
          "name": "_freelancer",
          "type": "address"
        }
      ],
      "name": "AcceptJob",
      "type": "event"
    },
    {
      "anonymous": false,
      "inputs": [
        {
          "indexed": true,
          "internalType": "uint256",
          "name": "_jobID",
          "type": "uint256"
        },
        {
          "indexed": true,
          "internalType": "address",
          "name": "_freelancer",
          "type": "address"
        }
      ],
      "name": "JobAssigned",
      "type": "event"
    },
    {
      "anonymous": false,
      "inputs": [
        {
          "indexed": true,
          "internalType": "uint256",
          "name": "_jobID",
          "type": "uint256"
        },
        {
          "indexed": true,
          "internalType": "address",
          "name": "_jobOwner",
          "type": "address"
        },
        {
          "indexed": false,
          "internalType": "uint256",
          "name": "_price",
          "type": "uint256"
        }
      ],
      "name": "JobCreated",
      "type": "event"
    },
    {
      "anonymous": false,
      "inputs": [
        {
          "indexed": true,
          "internalType": "uint256",
          "name": "_jobID",
          "type": "uint256"
        },
        {
          "indexed": true,
          "internalType": "address",
          "name": "_jobOwner",
          "type": "address"
        }
      ],
      "name": "JobDeleted",
      "type": "event"
    },
    {
      "anonymous": false,
      "inputs": [
        {
          "indexed": true,
          "internalType": "uint256",
          "name": "_jobID",
          "type": "uint256"
        },
        {
          "indexed": true,
          "internalType": "address",
          "name": "_freelancer",
          "type": "address"
        }
      ],
      "name": "MarkJobComplete",
      "type": "event"
    },
    {
      "anonymous": false,
      "inputs": [
        {
          "indexed": true,
          "internalType": "enum JobContract.JobStatus",
          "name": "_price",
          "type": "uint8"
        }
      ],
      "name": "Test",
      "type": "event"
    },
    {
      "inputs": [],
      "name": "JobCount",
      "outputs": [
        {
          "internalType": "uint256",
          "name": "",
          "type": "uint256"
        }
      ],
      "stateMutability": "view",
      "type": "function"
    },
    {
      "inputs": [
        {
          "internalType": "uint256",
          "name": "",
          "type": "uint256"
        }
      ],
      "name": "JobList",
      "outputs": [
        {
          "internalType": "uint256",
          "name": "jobID",
          "type": "uint256"
        },
        {
          "internalType": "string",
          "name": "jobTitle",
          "type": "string"
        },
        {
          "internalType": "address",
          "name": "jobOwner",
          "type": "address"
        },
        {
          "internalType": "uint256",
          "name": "price",
          "type": "uint256"
        },
        {
          "internalType": "enum JobContract.JobStatus",
          "name": "jobStatus",
          "type": "uint8"
        },
        {
          "internalType": "address",
          "name": "freelancer",
          "type": "address"
        }
      ],
      "stateMutability": "view",
      "type": "function"
    },
    {
      "inputs": [
        {
          "internalType": "uint256",
          "name": "_jobID",
          "type": "uint256"
        }
      ],
      "name": "acceptJob",
      "outputs": [],
      "stateMutability": "nonpayable",
      "type": "function"
    },
    {
      "inputs": [
        {
          "internalType": "string",
          "name": "_jobTitle",
          "type": "string"
        },
        {
          "internalType": "uint256",
          "name": "_price",
          "type": "uint256"
        }
      ],
      "name": "createJob",
      "outputs": [
        {
          "internalType": "uint256",
          "name": "",
          "type": "uint256"
        }
      ],
      "stateMutability": "payable",
      "type": "function"
    },
    {
      "inputs": [
        {
          "internalType": "uint256",
          "name": "_jobID",
          "type": "uint256"
        }
      ],
      "name": "deleteJob",
      "outputs": [],
      "stateMutability": "nonpayable",
      "type": "function"
    },
    {
      "inputs": [
        {
          "internalType": "uint256",
          "name": "_jobID",
          "type": "uint256"
        }
      ],
      "name": "jobAssignment",
      "outputs": [],
      "stateMutability": "nonpayable",
      "type": "function"
    },
    {
      "inputs": [],
      "name": "jobToken",
      "outputs": [
        {
          "internalType": "contract JobToken",
          "name": "",
          "type": "address"
        }
      ],
      "stateMutability": "view",
      "type": "function"
    },
    {
      "inputs": [
        {
          "internalType": "uint256",
          "name": "_jobID",
          "type": "uint256"
        }
      ],
      "name": "markJobComplete",
      "outputs": [],
      "stateMutability": "nonpayable",
      "type": "function"
    },
    {
      "stateMutability": "payable",
      "type": "receive"
    }
  ],
  "bytecode": "0x608060405230600160006101000a81548173ffffffffffffffffffffffffffffffffffffffff021916908373ffffffffffffffffffffffffffffffffffffffff16021790555060006002553480156200005757600080fd5b506040516200201b3803806200201b83398181016040528101906200007d9190620000db565b806000806101000a81548173ffffffffffffffffffffffffffffffffffffffff021916908373ffffffffffffffffffffffffffffffffffffffff1602179055505062000155565b600081519050620000d5816200013b565b92915050565b600060208284031215620000ee57600080fd5b6000620000fe84828501620000c4565b91505092915050565b600062000114826200011b565b9050919050565b600073ffffffffffffffffffffffffffffffffffffffff82169050919050565b620001468162000107565b81146200015257600080fd5b50565b611eb680620001656000396000f3fe60806040526004361061007f5760003560e01c80636358bb8c1161004e5780636358bb8c1461014f57806363b2f3c9146101785780637848a433146101a1578063901f76f8146101cc57610086565b80631901ac831461008b5780634522a6f5146100b457806346b03b14146100dd5780635713b2b61461011f57610086565b3661008657005b600080fd5b34801561009757600080fd5b506100b260048036038101906100ad91906116b2565b6101f7565b005b3480156100c057600080fd5b506100db60048036038101906100d691906116b2565b61041c565b005b3480156100e957600080fd5b5061010460048036038101906100ff91906116b2565b6105f2565b60405161011696959493929190611996565b60405180910390f35b6101396004803603810190610134919061165e565b610703565b604051610146919061197b565b60405180910390f35b34801561015b57600080fd5b50610176600480360381019061017191906116b2565b610b08565b005b34801561018457600080fd5b5061019f600480360381019061019a91906116b2565b610fb1565b005b3480156101ad57600080fd5b506101b66114ab565b6040516101c3919061197b565b60405180910390f35b3480156101d857600080fd5b506101e16114b1565b6040516101ee91906118c0565b60405180910390f35b8060008111801561020a57506002548111155b61021357600080fd5b60006003600084815260200190815260200160002090508060040160019054906101000a900473ffffffffffffffffffffffffffffffffffffffff1673ffffffffffffffffffffffffffffffffffffffff163373ffffffffffffffffffffffffffffffffffffffff16146102bc576040517f08c379a00000000000000000000000000000000000000000000000000000000081526004016102b39061191b565b60405180910390fd5b600160048111156102f6577f4e487b7100000000000000000000000000000000000000000000000000000000600052602160045260246000fd5b8160040160009054906101000a900460ff166004811115610340577f4e487b7100000000000000000000000000000000000000000000000000000000600052602160045260246000fd5b14610380576040517f08c379a00000000000000000000000000000000000000000000000000000000081526004016103779061195b565b60405180910390fd5b60028160040160006101000a81548160ff021916908360048111156103ce577f4e487b7100000000000000000000000000000000000000000000000000000000600052602160045260246000fd5b02179055503373ffffffffffffffffffffffffffffffffffffffff16837f68ff162ba05214941aa9f2ff54ae0eafd58d0900e010120322031f05392a626960405160405180910390a3505050565b8060008111801561042f57506002548111155b61043857600080fd5b600060036000848152602001908152602001600020905060006004811115610489577f4e487b7100000000000000000000000000000000000000000000000000000000600052602160045260246000fd5b8160040160009054906101000a900460ff1660048111156104d3577f4e487b7100000000000000000000000000000000000000000000000000000000600052602160045260246000fd5b14610513576040517f08c379a000000000000000000000000000000000000000000000000000000000815260040161050a9061193b565b60405180910390fd5b338160040160016101000a81548173ffffffffffffffffffffffffffffffffffffffff021916908373ffffffffffffffffffffffffffffffffffffffff16021790555060018160040160006101000a81548160ff021916908360048111156105a4577f4e487b7100000000000000000000000000000000000000000000000000000000600052602160045260246000fd5b02179055503373ffffffffffffffffffffffffffffffffffffffff16837f3738a681a43a0b6a554742a08bae57e0215e8a774217dc2e7de6c9411b6d0ddc60405160405180910390a3505050565b600360205280600052604060002060009150905080600001549080600101805461061b90611bcf565b80601f016020809104026020016040519081016040528092919081815260200182805461064790611bcf565b80156106945780601f1061066957610100808354040283529160200191610694565b820191906000526020600020905b81548152906001019060200180831161067757829003601f168201915b5050505050908060020160009054906101000a900473ffffffffffffffffffffffffffffffffffffffff16908060030154908060040160009054906101000a900460ff16908060040160019054906101000a900473ffffffffffffffffffffffffffffffffffffffff16905086565b60008060008054906101000a900473ffffffffffffffffffffffffffffffffffffffff1673ffffffffffffffffffffffffffffffffffffffff1663dd62ed3e33306040518363ffffffff1660e01b8152600401610761929190611860565b60206040518083038186803b15801561077957600080fd5b505afa15801561078d573d6000803e3d6000fd5b505050506040513d601f19601f820116820180604052508101906107b191906116db565b90508281116107f5576040517f08c379a00000000000000000000000000000000000000000000000000000000081526004016107ec906118fb565b60405180910390fd5b60008054906101000a900473ffffffffffffffffffffffffffffffffffffffff1673ffffffffffffffffffffffffffffffffffffffff166323b872dd33600160009054906101000a900473ffffffffffffffffffffffffffffffffffffffff16866040518463ffffffff1660e01b815260040161087493929190611889565b602060405180830381600087803b15801561088e57600080fd5b505af11580156108a2573d6000803e3d6000fd5b505050506040513d601f19601f820116820180604052508101906108c69190611635565b5060006040518060c0016040528060025481526020018681526020013373ffffffffffffffffffffffffffffffffffffffff1681526020018581526020016000600481111561093e577f4e487b7100000000000000000000000000000000000000000000000000000000600052602160045260246000fd5b8152602001600073ffffffffffffffffffffffffffffffffffffffff16815250905061097660016002546114d590919063ffffffff16565b600281905550806003600060025481526020019081526020016000206000820151816000015560208201518160010190805190602001906109b89291906114eb565b5060408201518160020160006101000a81548173ffffffffffffffffffffffffffffffffffffffff021916908373ffffffffffffffffffffffffffffffffffffffff1602179055506060820151816003015560808201518160040160006101000a81548160ff02191690836004811115610a5b577f4e487b7100000000000000000000000000000000000000000000000000000000600052602160045260246000fd5b021790555060a08201518160040160016101000a81548173ffffffffffffffffffffffffffffffffffffffff021916908373ffffffffffffffffffffffffffffffffffffffff1602179055509050503373ffffffffffffffffffffffffffffffffffffffff166002547f8678ba2d99dba901dafc51009f8d402d37a5a0275752cf0e263b827aeca906f286604051610af3919061197b565b60405180910390a36002549250505092915050565b80600081118015610b1b57506002548111155b610b2457600080fd5b816000600360008381526020019081526020016000206040518060c001604052908160008201548152602001600182018054610b5f90611bcf565b80601f0160208091040260200160405190810160405280929190818152602001828054610b8b90611bcf565b8015610bd85780601f10610bad57610100808354040283529160200191610bd8565b820191906000526020600020905b815481529060010190602001808311610bbb57829003601f168201915b505050505081526020016002820160009054906101000a900473ffffffffffffffffffffffffffffffffffffffff1673ffffffffffffffffffffffffffffffffffffffff1673ffffffffffffffffffffffffffffffffffffffff168152602001600382015481526020016004820160009054906101000a900460ff166004811115610c8c577f4e487b7100000000000000000000000000000000000000000000000000000000600052602160045260246000fd5b6004811115610cc4577f4e487b7100000000000000000000000000000000000000000000000000000000600052602160045260246000fd5b81526020016004820160019054906101000a900473ffffffffffffffffffffffffffffffffffffffff1673ffffffffffffffffffffffffffffffffffffffff1673ffffffffffffffffffffffffffffffffffffffff16815250509050806040015173ffffffffffffffffffffffffffffffffffffffff163373ffffffffffffffffffffffffffffffffffffffff1614610d5c57600080fd5b600060036000868152602001908152602001600020905060006004811115610dad577f4e487b7100000000000000000000000000000000000000000000000000000000600052602160045260246000fd5b8160040160009054906101000a900460ff166004811115610df7577f4e487b7100000000000000000000000000000000000000000000000000000000600052602160045260246000fd5b14610e37576040517f08c379a0000000000000000000000000000000000000000000000000000000008152600401610e2e9061193b565b60405180910390fd5b60008160030154905060048260040160006101000a81548160ff02191690836004811115610e8e577f4e487b7100000000000000000000000000000000000000000000000000000000600052602160045260246000fd5b021790555060008054906101000a900473ffffffffffffffffffffffffffffffffffffffff1673ffffffffffffffffffffffffffffffffffffffff1663a9059cbb33836040518363ffffffff1660e01b8152600401610eee929190611837565b602060405180830381600087803b158015610f0857600080fd5b505af1158015610f1c573d6000803e3d6000fd5b505050506040513d601f19601f82011682018060405250810190610f409190611635565b508160020160009054906101000a900473ffffffffffffffffffffffffffffffffffffffff1673ffffffffffffffffffffffffffffffffffffffff16867f89f27608841804f17b8e014428ff9f1b09d1e415313170c8de783b0de71316ba60405160405180910390a3505050505050565b80600081118015610fc457506002548111155b610fcd57600080fd5b816000600360008381526020019081526020016000206040518060c00160405290816000820154815260200160018201805461100890611bcf565b80601f016020809104026020016040519081016040528092919081815260200182805461103490611bcf565b80156110815780601f1061105657610100808354040283529160200191611081565b820191906000526020600020905b81548152906001019060200180831161106457829003601f168201915b505050505081526020016002820160009054906101000a900473ffffffffffffffffffffffffffffffffffffffff1673ffffffffffffffffffffffffffffffffffffffff1673ffffffffffffffffffffffffffffffffffffffff168152602001600382015481526020016004820160009054906101000a900460ff166004811115611135577f4e487b7100000000000000000000000000000000000000000000000000000000600052602160045260246000fd5b600481111561116d577f4e487b7100000000000000000000000000000000000000000000000000000000600052602160045260246000fd5b81526020016004820160019054906101000a900473ffffffffffffffffffffffffffffffffffffffff1673ffffffffffffffffffffffffffffffffffffffff1673ffffffffffffffffffffffffffffffffffffffff16815250509050806040015173ffffffffffffffffffffffffffffffffffffffff163373ffffffffffffffffffffffffffffffffffffffff161461120557600080fd5b600060036000868152602001908152602001600020905060026004811115611256577f4e487b7100000000000000000000000000000000000000000000000000000000600052602160045260246000fd5b8160040160009054906101000a900460ff1660048111156112a0577f4e487b7100000000000000000000000000000000000000000000000000000000600052602160045260246000fd5b146112e0576040517f08c379a00000000000000000000000000000000000000000000000000000000081526004016112d7906118db565b60405180910390fd5b6003600481111561131a577f4e487b7100000000000000000000000000000000000000000000000000000000600052602160045260246000fd5b8160040160009054906101000a900460ff166004811115611364577f4e487b7100000000000000000000000000000000000000000000000000000000600052602160045260246000fd5b505060008054906101000a900473ffffffffffffffffffffffffffffffffffffffff1673ffffffffffffffffffffffffffffffffffffffff1663a9059cbb8260040160019054906101000a900473ffffffffffffffffffffffffffffffffffffffff1683600301546040518363ffffffff1660e01b81526004016113e9929190611837565b602060405180830381600087803b15801561140357600080fd5b505af1158015611417573d6000803e3d6000fd5b505050506040513d601f19601f8201168201806040525081019061143b9190611635565b508060040160019054906101000a900473ffffffffffffffffffffffffffffffffffffffff1673ffffffffffffffffffffffffffffffffffffffff16857f0ad527b3503460f2f1b1708cffb1b92d46a3f56beefb0cefbbda3369b7fce8da60405160405180910390a35050505050565b60025481565b60008054906101000a900473ffffffffffffffffffffffffffffffffffffffff1681565b600081836114e39190611a70565b905092915050565b8280546114f790611bcf565b90600052602060002090601f0160209004810192826115195760008555611560565b82601f1061153257805160ff1916838001178555611560565b82800160010185558215611560579182015b8281111561155f578251825591602001919060010190611544565b5b50905061156d9190611571565b5090565b5b8082111561158a576000816000905550600101611572565b5090565b60006115a161159c84611a23565b6119fe565b9050828152602081018484840111156115b957600080fd5b6115c4848285611b8d565b509392505050565b6000815190506115db81611e52565b92915050565b600082601f8301126115f257600080fd5b813561160284826020860161158e565b91505092915050565b60008135905061161a81611e69565b92915050565b60008151905061162f81611e69565b92915050565b60006020828403121561164757600080fd5b6000611655848285016115cc565b91505092915050565b6000806040838503121561167157600080fd5b600083013567ffffffffffffffff81111561168b57600080fd5b611697858286016115e1565b92505060206116a88582860161160b565b9150509250929050565b6000602082840312156116c457600080fd5b60006116d28482850161160b565b91505092915050565b6000602082840312156116ed57600080fd5b60006116fb84828501611620565b91505092915050565b61170d81611b21565b82525050565b61171c81611ac6565b82525050565b61172b81611b33565b82525050565b61173a81611b57565b82525050565b600061174b82611a54565b6117558185611a5f565b9350611765818560208601611b9c565b61176e81611cee565b840191505092915050565b6000611786602883611a5f565b915061179182611cff565b604082019050919050565b60006117a9601983611a5f565b91506117b482611d4e565b602082019050919050565b60006117cc603283611a5f565b91506117d782611d77565b604082019050919050565b60006117ef602c83611a5f565b91506117fa82611dc6565b604082019050919050565b6000611812602083611a5f565b915061181d82611e15565b602082019050919050565b61183181611b17565b82525050565b600060408201905061184c6000830185611704565b6118596020830184611828565b9392505050565b60006040820190506118756000830185611713565b6118826020830184611713565b9392505050565b600060608201905061189e6000830186611713565b6118ab6020830185611704565b6118b86040830184611828565b949350505050565b60006020820190506118d56000830184611722565b92915050565b600060208201905081810360008301526118f481611779565b9050919050565b600060208201905081810360008301526119148161179c565b9050919050565b60006020820190508181036000830152611934816117bf565b9050919050565b60006020820190508181036000830152611954816117e2565b9050919050565b6000602082019050818103600083015261197481611805565b9050919050565b60006020820190506119906000830184611828565b92915050565b600060c0820190506119ab6000830189611828565b81810360208301526119bd8188611740565b90506119cc6040830187611713565b6119d96060830186611828565b6119e66080830185611731565b6119f360a0830184611713565b979650505050505050565b6000611a08611a19565b9050611a148282611c01565b919050565b6000604051905090565b600067ffffffffffffffff821115611a3e57611a3d611cbf565b5b611a4782611cee565b9050602081019050919050565b600081519050919050565b600082825260208201905092915050565b6000611a7b82611b17565b9150611a8683611b17565b9250827fffffffffffffffffffffffffffffffffffffffffffffffffffffffffffffffff03821115611abb57611aba611c32565b5b828201905092915050565b6000611ad182611af7565b9050919050565b60008115159050919050565b6000819050611af282611e3e565b919050565b600073ffffffffffffffffffffffffffffffffffffffff82169050919050565b6000819050919050565b6000611b2c82611b69565b9050919050565b6000611b3e82611b45565b9050919050565b6000611b5082611af7565b9050919050565b6000611b6282611ae4565b9050919050565b6000611b7482611b7b565b9050919050565b6000611b8682611af7565b9050919050565b82818337600083830152505050565b60005b83811015611bba578082015181840152602081019050611b9f565b83811115611bc9576000848401525b50505050565b60006002820490506001821680611be757607f821691505b60208210811415611bfb57611bfa611c90565b5b50919050565b611c0a82611cee565b810181811067ffffffffffffffff82111715611c2957611c28611cbf565b5b80604052505050565b7f4e487b7100000000000000000000000000000000000000000000000000000000600052601160045260246000fd5b7f4e487b7100000000000000000000000000000000000000000000000000000000600052602160045260246000fd5b7f4e487b7100000000000000000000000000000000000000000000000000000000600052602260045260246000fd5b7f4e487b7100000000000000000000000000000000000000000000000000000000600052604160045260246000fd5b6000601f19601f8301169050919050565b7f546869732066756e6374696f6e206973206e6f7420696e20617070726f76616c60008201527f2070656e64696e67000000000000000000000000000000000000000000000000602082015250565b7f436865636b2074686520746f6b656e20616c6c6f77616e636500000000000000600082015250565b7f546869732066756e6374696f6e2063616e2062652063616c6c6564206f6e6c7960008201527f2062792074686520667265656c616e6365720000000000000000000000000000602082015250565b7f54686973206a6f6220697320616c72656164792061636365707465642062792060008201527f6120667265656c616e6365720000000000000000000000000000000000000000602082015250565b7f546869732066756e6374696f6e206973206e6f7420696e2070726f6772657373600082015250565b60058110611e4f57611e4e611c61565b5b50565b611e5b81611ad8565b8114611e6657600080fd5b50565b611e7281611b17565b8114611e7d57600080fd5b5056fea26469706673582212206c0263b82f8bff551ac1f7dfd2aadb02d3696ab75f06d24f77536d36f99d554164736f6c63430008040033",
  "linkReferences": {},
  "deployedLinkReferences": {}
}